{
  "contractName": "EvidenceManagement",
  "abi": [
    {
      "constant": true,
      "inputs": [],
      "name": "evidenceCount",
      "outputs": [
        {
          "name": "",
          "type": "uint256"
        }
      ],
      "payable": false,
      "stateMutability": "view",
      "type": "function",
      "signature": "0xa2ed5af0"
    },
    {
      "anonymous": false,
      "inputs": [
        {
          "indexed": false,
          "name": "evidenceId",
          "type": "string"
        },
        {
          "indexed": false,
          "name": "caseName",
          "type": "string"
        },
        {
          "indexed": false,
          "name": "victimName",
          "type": "string"
        },
        {
          "indexed": false,
          "name": "location",
          "type": "string"
        },
        {
          "indexed": false,
          "name": "description",
          "type": "string"
        },
        {
          "indexed": false,
          "name": "evidenceHash",
          "type": "string"
        },
        {
          "indexed": false,
          "name": "pdfHash",
          "type": "string"
        },
        {
          "indexed": false,
          "name": "addedBy",
          "type": "address"
        }
      ],
      "name": "EvidenceAdded",
      "type": "event",
      "signature": "0x5556549a8db985ed4d7d7854c40a37ae8717cb6f95a268ec72c614efdabaf949"
    },
    {
      "constant": false,
      "inputs": [
        {
          "name": "_evidenceId",
          "type": "string"
        },
        {
          "name": "_caseName",
          "type": "string"
        },
        {
          "name": "_victimName",
          "type": "string"
        },
        {
          "name": "_location",
          "type": "string"
        },
        {
          "name": "_description",
          "type": "string"
        },
        {
          "name": "_evidenceHash",
          "type": "string"
        },
        {
          "name": "_pdfHash",
          "type": "string"
        }
      ],
      "name": "addEvidence",
      "outputs": [],
      "payable": false,
      "stateMutability": "nonpayable",
      "type": "function",
      "signature": "0x5144db47"
    },
    {
      "constant": true,
      "inputs": [
        {
          "name": "_evidenceId",
          "type": "string"
        }
      ],
      "name": "getEvidence",
      "outputs": [
        {
          "name": "",
          "type": "string"
        },
        {
          "name": "",
          "type": "string"
        },
        {
          "name": "",
          "type": "string"
        },
        {
          "name": "",
          "type": "string"
        },
        {
          "name": "",
          "type": "string"
        },
        {
          "name": "",
          "type": "string"
        },
        {
          "name": "",
          "type": "string"
        },
        {
          "name": "",
          "type": "uint256"
        },
        {
          "name": "",
          "type": "address"
        }
      ],
      "payable": false,
      "stateMutability": "view",
      "type": "function",
      "signature": "0xb16c6ee7"
    },
    {
      "constant": true,
      "inputs": [],
      "name": "getAllEvidence",
      "outputs": [
        {
          "name": "",
          "type": "string[]"
        }
      ],
      "payable": false,
      "stateMutability": "view",
      "type": "function",
      "signature": "0xc22cf017"
    }
  ],
  "bytecode": "0x608060405234801561001057600080fd5b506111a5806100206000396000f3fe6080604052600436106100615763ffffffff7c01000000000000000000000000000000000000000000000000000000006000350416635144db478114610066578063a2ed5af014610088578063b16c6ee7146100b3578063c22cf017146100e8575b600080fd5b34801561007257600080fd5b50610086610081366004610c30565b61010a565b005b34801561009457600080fd5b5061009d610460565b6040516100aa919061108f565b60405180910390f35b3480156100bf57600080fd5b506100d36100ce366004610bf3565b610466565b6040516100aa99989796959493929190610fa4565b3480156100f457600080fd5b506100fd6109cb565b6040516100aa9190610ee6565b865160001061014e576040517f08c379a00000000000000000000000000000000000000000000000000000000081526004016101459061107f565b60405180910390fd5b6000876040518082805190602001908083835b602083106101805780518252601f199092019160209182019101610161565b6001836020036101000a03801982511681845116808217855250505050505090500191505090815260200160405180910390206000018054600181600116156101000203166002900490506000141515610206576040517f08c379a00000000000000000000000000000000000000000000000000000000081526004016101459061106f565b610120604051908101604052808881526020018781526020018681526020018581526020018481526020018381526020018281526020014281526020013373ffffffffffffffffffffffffffffffffffffffff168152506000886040518082805190602001908083835b6020831061028f5780518252601f199092019160209182019101610270565b51815160209384036101000a60001901801990921691161790529201948552506040519384900381019093208451805191946102d094508593500190610aa4565b5060208281015180516102e99260018501920190610aa4565b5060408201518051610305916002840191602090910190610aa4565b5060608201518051610321916003840191602090910190610aa4565b506080820151805161033d916004840191602090910190610aa4565b5060a08201518051610359916005840191602090910190610aa4565b5060c08201518051610375916006840191602090910190610aa4565b5060e08201516007820155610100909101516008909101805473ffffffffffffffffffffffffffffffffffffffff191673ffffffffffffffffffffffffffffffffffffffff909216919091179055600180548082018083556000929092528851610406917fb10e2d527612073b26eecdfd717e6a320cf44b4afac2b0732d9fcbe2b7fa0cf6019060208b0190610aa4565b50506002805460010190556040517f5556549a8db985ed4d7d7854c40a37ae8717cb6f95a268ec72c614efdabaf9499061044f9089908990899089908990899089903390610efe565b60405180910390a150505050505050565b60025481565b606080606080606080606060008061047c610b22565b60008b6040518082805190602001908083835b602083106104ae5780518252601f19909201916020918201910161048f565b518151600019602094850361010090810a820192831692199390931691909117909252949092019687526040805197889003820188208054610140601f60026001841615909902909601909116969096049384018390049092028801850190526101208701828152909550869450928592508401828280156105715780601f1061054657610100808354040283529160200191610571565b820191906000526020600020905b81548152906001019060200180831161055457829003601f168201915b50505050508152602001600182018054600181600116156101000203166002900480601f0160208091040260200160405190810160405280929190818152602001828054600181600116156101000203166002900480156106135780601f106105e857610100808354040283529160200191610613565b820191906000526020600020905b8154815290600101906020018083116105f657829003601f168201915b5050509183525050600282810180546040805160206001841615610100026000190190931694909404601f810183900483028501830190915280845293810193908301828280156106a55780601f1061067a576101008083540402835291602001916106a5565b820191906000526020600020905b81548152906001019060200180831161068857829003601f168201915b505050918352505060038201805460408051602060026001851615610100026000190190941693909304601f81018490048402820184019092528181529382019392918301828280156107395780601f1061070e57610100808354040283529160200191610739565b820191906000526020600020905b81548152906001019060200180831161071c57829003601f168201915b505050918352505060048201805460408051602060026001851615610100026000190190941693909304601f81018490048402820184019092528181529382019392918301828280156107cd5780601f106107a2576101008083540402835291602001916107cd565b820191906000526020600020905b8154815290600101906020018083116107b057829003601f168201915b505050918352505060058201805460408051602060026001851615610100026000190190941693909304601f81018490048402820184019092528181529382019392918301828280156108615780601f1061083657610100808354040283529160200191610861565b820191906000526020600020905b81548152906001019060200180831161084457829003601f168201915b505050918352505060068201805460408051602060026001851615610100026000190190941693909304601f81018490048402820184019092528181529382019392918301828280156108f55780601f106108ca576101008083540402835291602001916108f5565b820191906000526020600020905b8154815290600101906020018083116108d857829003601f168201915b50505091835250506007820154602082015260089091015473ffffffffffffffffffffffffffffffffffffffff16604090910152805151909150600010610968576040517f08c379a000000000000000000000000000000000000000000000000000000000815260040161014590611059565b806000015181602001518260400151836060015184608001518560a001518660c001518760e00151886101000151889850879750869650859550849450839350829250995099509950995099509950995099509950509193959799909294969850565b60606001805480602002602001604051908101604052809291908181526020016000905b82821015610a9a5760008481526020908190208301805460408051601f6002600019610100600187161502019094169390930492830185900485028101850190915281815292830182828015610a865780601f10610a5b57610100808354040283529160200191610a86565b820191906000526020600020905b815481529060010190602001808311610a6957829003601f168201915b5050505050815260200190600101906109ef565b5050505090505b90565b828054600181600116156101000203166002900490600052602060002090601f016020900481019282601f10610ae557805160ff1916838001178555610b12565b82800160010185558215610b12579182015b82811115610b12578251825591602001919060010190610af7565b50610b1e929150610b85565b5090565b610120604051908101604052806060815260200160608152602001606081526020016060815260200160608152602001606081526020016060815260200160008152602001600073ffffffffffffffffffffffffffffffffffffffff1681525090565b610aa191905b80821115610b1e5760008155600101610b8b565b6000601f82018313610bb057600080fd5b8135610bc3610bbe826110c4565b61109d565b91508082526020830160208301858383011115610bdf57600080fd5b610bea838284611125565b50505092915050565b600060208284031215610c0557600080fd5b813567ffffffffffffffff811115610c1c57600080fd5b610c2884828501610b9f565b949350505050565b600080600080600080600060e0888a031215610c4b57600080fd5b873567ffffffffffffffff811115610c6257600080fd5b610c6e8a828b01610b9f565b975050602088013567ffffffffffffffff811115610c8b57600080fd5b610c978a828b01610b9f565b965050604088013567ffffffffffffffff811115610cb457600080fd5b610cc08a828b01610b9f565b955050606088013567ffffffffffffffff811115610cdd57600080fd5b610ce98a828b01610b9f565b945050608088013567ffffffffffffffff811115610d0657600080fd5b610d128a828b01610b9f565b93505060a088013567ffffffffffffffff811115610d2f57600080fd5b610d3b8a828b01610b9f565b92505060c088013567ffffffffffffffff811115610d5857600080fd5b610d648a828b01610b9f565b91505092959891949750929550565b610d7c81611114565b82525050565b610d7c816110f6565b6000610d96826110f2565b80845260208401935083602082028501610daf856110ec565b60005b84811015610de6578383038852610dca838351610df2565b9250610dd5826110ec565b602098909801979150600101610db2565b50909695505050505050565b6000610dfd826110f2565b808452610e11816020860160208601611131565b610e1a81611161565b9093016020019392505050565b601281527f45766964656e6365206e6f7420666f756e640000000000000000000000000000602082015260400190565b602481527f45766964656e63652077697468207468697320494420616c726561647920657860208201527f6973747300000000000000000000000000000000000000000000000000000000604082015260600190565b601b81527f45766964656e63652049442063616e6e6f7420626520656d7074790000000000602082015260400190565b610d7c81610aa1565b60208082528101610ef78184610d8b565b9392505050565b6101008082528101610f10818b610df2565b90508181036020830152610f24818a610df2565b90508181036040830152610f388189610df2565b90508181036060830152610f4c8188610df2565b90508181036080830152610f608187610df2565b905081810360a0830152610f748186610df2565b905081810360c0830152610f888185610df2565b9050610f9760e0830184610d73565b9998505050505050505050565b6101208082528101610fb6818c610df2565b90508181036020830152610fca818b610df2565b90508181036040830152610fde818a610df2565b90508181036060830152610ff28189610df2565b905081810360808301526110068188610df2565b905081810360a083015261101a8187610df2565b905081810360c083015261102e8186610df2565b905061103d60e0830185610edd565b61104b610100830184610d82565b9a9950505050505050505050565b6020808252810161106981610e27565b92915050565b6020808252810161106981610e57565b6020808252810161106981610ead565b602081016110698284610edd565b60405181810167ffffffffffffffff811182821017156110bc57600080fd5b604052919050565b600067ffffffffffffffff8211156110db57600080fd5b506020601f91909101601f19160190565b60200190565b5190565b600073ffffffffffffffffffffffffffffffffffffffff8216611069565b6000611069826000611069826110f6565b82818337506000910152565b60005b8381101561114c578181015183820152602001611134565b8381111561115b576000848401525b50505050565b601f01601f19169056fea265627a7a7230582001a3c81db687975a96a268516c82713cfc0fad66792c02bea9dc4b29ac38f1276c6578706572696d656e74616cf50037",
  "source": "pragma solidity ^0.5.0;\npragma experimental ABIEncoderV2;\n\ncontract EvidenceManagement {\n    struct Evidence {\n        string evidenceId;\n        string caseName;\n        string victimName;\n        string location;\n        string description;\n        string evidenceHash;\n        string pdfHash;\n        uint256 timestamp;\n        address addedBy;\n    }\n\n    mapping(string => Evidence) private evidences;\n    string[] private evidenceIds;\n    uint256 public evidenceCount;\n\n    event EvidenceAdded(\n        string evidenceId,\n        string caseName,\n        string victimName,\n        string location,\n        string description,\n        string evidenceHash,\n        string pdfHash,\n        address addedBy\n    );\n\n    function addEvidence(\n        string memory _evidenceId,\n        string memory _caseName,\n        string memory _victimName,\n        string memory _location,\n        string memory _description,\n        string memory _evidenceHash,\n        string memory _pdfHash\n    ) public {\n        require(bytes(_evidenceId).length > 0, \"Evidence ID cannot be empty\");\n        require(bytes(evidences[_evidenceId].evidenceId).length == 0, \"Evidence with this ID already exists\");\n\n        evidences[_evidenceId] = Evidence(\n            _evidenceId,\n            _caseName,\n            _victimName,\n            _location,\n            _description,\n            _evidenceHash,\n            _pdfHash,\n            block.timestamp,\n            msg.sender\n        );\n\n        evidenceIds.push(_evidenceId);\n        evidenceCount++;\n\n        emit EvidenceAdded(\n            _evidenceId,\n            _caseName,\n            _victimName,\n            _location,\n            _description,\n            _evidenceHash,\n            _pdfHash,\n            msg.sender\n        );\n    }\n\n    function getEvidence(string memory _evidenceId) public view returns (\n        string memory,\n        string memory,\n        string memory,\n        string memory,\n        string memory,\n        string memory,\n        string memory,\n        uint256,\n        address\n    ) {\n        Evidence memory e = evidences[_evidenceId];\n        require(bytes(e.evidenceId).length > 0, \"Evidence not found\");\n        return (\n            e.evidenceId,\n            e.caseName,\n            e.victimName,\n            e.location,\n            e.description,\n            e.evidenceHash,\n            e.pdfHash,\n            e.timestamp,\n            e.addedBy\n        );\n    }\n\n    function getAllEvidence() public view returns (string[] memory) {\n        return evidenceIds;\n    }\n}\n\n// const contractABI = [\n//   // Add all ABI items here, including updated addEvidence and getEvidence with pdfHash\n//   {\n//     \"constant\": false,\n//     \"inputs\": [\n//       { \"name\": \"_evidenceId\", \"type\": \"string\" },\n//       { \"name\": \"_caseName\", \"type\": \"string\" },\n//       { \"name\": \"_victimName\", \"type\": \"string\" },\n//       { \"name\": \"_location\", \"type\": \"string\" },\n//       { \"name\": \"_description\", \"type\": \"string\" },\n//       { \"name\": \"_evidenceHash\", \"type\": \"string\" },\n//       { \"name\": \"_pdfHash\", \"type\": \"string\" }\n//     ],\n//     \"name\": \"addEvidence\",\n//     \"outputs\": [],\n//     \"payable\": false,\n//     \"stateMutability\": \"nonpayable\",\n//     \"type\": \"function\"\n//   },\n//   {\n//     \"constant\": true,\n//     \"inputs\": [{ \"name\": \"_id\", \"type\": \"string\" }],\n//     \"name\": \"getEvidence\",\n//     \"outputs\": [\n//       { \"name\": \"evidenceId\", \"type\": \"string\" },\n//       { \"name\": \"caseName\", \"type\": \"string\" },\n//       { \"name\": \"victimName\", \"type\": \"string\" },\n//       { \"name\": \"location\", \"type\": \"string\" },\n//       { \"name\": \"description\", \"type\": \"string\" },\n//       { \"name\": \"evidenceHash\", \"type\": \"string\" },\n//       { \"name\": \"pdfHash\", \"type\": \"string\" },\n//       { \"name\": \"timestamp\", \"type\": \"uint256\" },\n//       { \"name\": \"addedBy\", \"type\": \"address\" }\n//     ],\n//     \"payable\": false,\n//     \"stateMutability\": \"view\",\n//     \"type\": \"function\"\n//   },\n//   {\n//     \"constant\": true,\n//     \"inputs\": [],\n//     \"name\": \"getAllEvidence\",\n//     \"outputs\": [{ \"name\": \"\", \"type\": \"string[]\" }],\n//     \"payable\": false,\n//     \"stateMutability\": \"view\",\n//     \"type\": \"function\"\n//   }\n// ];\n",
  "sourcePath": "E:/Projects/Evidence Management/contracts/EvidenceManagement.sol",
  "compiler": {
    "name": "solc",
    "version": "0.5.0+commit.1d4f565a.Emscripten.clang"
  },
  "schemaVersion": "3.0.1",
  "updatedAt": "2024-11-11T17:12:02.522Z",
  "devdoc": {
    "methods": {}
  },
  "userdoc": {
    "methods": {}
  }
}