{
  "contractName": "EvidenceManagement",
  "abi": [
    {
      "constant": true,
      "inputs": [],
      "name": "evidenceCount",
      "outputs": [
        {
          "name": "",
          "type": "uint256"
        }
      ],
      "payable": false,
      "stateMutability": "view",
      "type": "function",
      "signature": "0xa2ed5af0"
    },
    {
      "anonymous": false,
      "inputs": [
        {
          "indexed": false,
          "name": "evidenceId",
          "type": "string"
        },
        {
          "indexed": false,
          "name": "caseName",
          "type": "string"
        },
        {
          "indexed": false,
          "name": "victimName",
          "type": "string"
        },
        {
          "indexed": false,
          "name": "location",
          "type": "string"
        },
        {
          "indexed": false,
          "name": "description",
          "type": "string"
        },
        {
          "indexed": false,
          "name": "evidenceHash",
          "type": "string"
        },
        {
          "indexed": false,
          "name": "addedBy",
          "type": "address"
        }
      ],
      "name": "EvidenceAdded",
      "type": "event",
      "signature": "0x06507ceeea6fb86f5b876ac8b45b365400900f3abe7a113893cfb0a4c7c26277"
    },
    {
      "constant": false,
      "inputs": [
        {
          "name": "_evidenceId",
          "type": "string"
        },
        {
          "name": "_caseName",
          "type": "string"
        },
        {
          "name": "_victimName",
          "type": "string"
        },
        {
          "name": "_location",
          "type": "string"
        },
        {
          "name": "_description",
          "type": "string"
        },
        {
          "name": "_evidenceHash",
          "type": "string"
        }
      ],
      "name": "addEvidence",
      "outputs": [],
      "payable": false,
      "stateMutability": "nonpayable",
      "type": "function",
      "signature": "0x47549cb7"
    },
    {
      "constant": true,
      "inputs": [
        {
          "name": "_evidenceId",
          "type": "string"
        }
      ],
      "name": "getEvidence",
      "outputs": [
        {
          "name": "",
          "type": "string"
        },
        {
          "name": "",
          "type": "string"
        },
        {
          "name": "",
          "type": "string"
        },
        {
          "name": "",
          "type": "string"
        },
        {
          "name": "",
          "type": "string"
        },
        {
          "name": "",
          "type": "string"
        },
        {
          "name": "",
          "type": "uint256"
        },
        {
          "name": "",
          "type": "address"
        }
      ],
      "payable": false,
      "stateMutability": "view",
      "type": "function",
      "signature": "0xb16c6ee7"
    }
  ],
  "bytecode": "0x608060405234801561001057600080fd5b506112e5806100206000396000f3fe6080604052600436106100565763ffffffff7c010000000000000000000000000000000000000000000000000000000060003504166347549cb7811461005b578063a2ed5af0146103b3578063b16c6ee7146103da575b600080fd5b34801561006757600080fd5b506103b1600480360360c081101561007e57600080fd5b81019060208101813564010000000081111561009957600080fd5b8201836020820111156100ab57600080fd5b803590602001918460018302840111640100000000831117156100cd57600080fd5b91908080601f016020809104026020016040519081016040528093929190818152602001838380828437600092019190915250929594936020810193503591505064010000000081111561012057600080fd5b82018360208201111561013257600080fd5b8035906020019184600183028401116401000000008311171561015457600080fd5b91908080601f01602080910402602001604051908101604052809392919081815260200183838082843760009201919091525092959493602081019350359150506401000000008111156101a757600080fd5b8201836020820111156101b957600080fd5b803590602001918460018302840111640100000000831117156101db57600080fd5b91908080601f016020809104026020016040519081016040528093929190818152602001838380828437600092019190915250929594936020810193503591505064010000000081111561022e57600080fd5b82018360208201111561024057600080fd5b8035906020019184600183028401116401000000008311171561026257600080fd5b91908080601f01602080910402602001604051908101604052809392919081815260200183838082843760009201919091525092959493602081019350359150506401000000008111156102b557600080fd5b8201836020820111156102c757600080fd5b803590602001918460018302840111640100000000831117156102e957600080fd5b91908080601f016020809104026020016040519081016040528093929190818152602001838380828437600092019190915250929594936020810193503591505064010000000081111561033c57600080fd5b82018360208201111561034e57600080fd5b8035906020019184600183028401116401000000008311171561037057600080fd5b91908080601f016020809104026020016040519081016040528093929190818152602001838380828437600092019190915250929550610726945050505050565b005b3480156103bf57600080fd5b506103c8610cf3565b60408051918252519081900360200190f35b3480156103e657600080fd5b5061048d600480360360208110156103fd57600080fd5b81019060208101813564010000000081111561041857600080fd5b82018360208201111561042a57600080fd5b8035906020019184600183028401116401000000008311171561044c57600080fd5b91908080601f016020809104026020016040519081016040528093929190818152602001838380828437600092019190915250929550610cf9945050505050565b6040518080602001806020018060200180602001806020018060200189815260200188600160a060020a0316600160a060020a0316815260200187810387528f818151815260200191508051906020019080838360005b838110156104fc5781810151838201526020016104e4565b50505050905090810190601f1680156105295780820380516001836020036101000a031916815260200191505b5087810386528e818151815260200191508051906020019080838360005b8381101561055f578181015183820152602001610547565b50505050905090810190601f16801561058c5780820380516001836020036101000a031916815260200191505b5087810385528d5181528d516020918201918f019080838360005b838110156105bf5781810151838201526020016105a7565b50505050905090810190601f1680156105ec5780820380516001836020036101000a031916815260200191505b5087810384528c5181528c516020918201918e019080838360005b8381101561061f578181015183820152602001610607565b50505050905090810190601f16801561064c5780820380516001836020036101000a031916815260200191505b5087810383528b5181528b516020918201918d019080838360005b8381101561067f578181015183820152602001610667565b50505050905090810190601f1680156106ac5780820380516001836020036101000a031916815260200191505b5087810382528a5181528a516020918201918c019080838360005b838110156106df5781810151838201526020016106c7565b50505050905090810190601f16801561070c5780820380516001836020036101000a031916815260200191505b509e50505050505050505050505050505060405180910390f35b855160001061079657604080517f08c379a000000000000000000000000000000000000000000000000000000000815260206004820152601b60248201527f45766964656e63652049442063616e6e6f7420626520656d7074790000000000604482015290519081900360640190fd5b6000866040518082805190602001908083835b602083106107c85780518252601f1990920191602091820191016107a9565b6001836020036101000a038019825116818451168082178552505050505050905001915050908152602001604051809103902060000180546001816001161561010002031660029004905060001415156108a857604080517f08c379a0000000000000000000000000000000000000000000000000000000008152602060048201526024808201527f45766964656e63652077697468207468697320494420616c726561647920657860448201527f6973747300000000000000000000000000000000000000000000000000000000606482015290519081900360840190fd5b6101006040519081016040528087815260200186815260200185815260200184815260200183815260200182815260200142815260200133600160a060020a03168152506000876040518082805190602001908083835b6020831061091e5780518252601f1990920191602091820191016108ff565b51815160209384036101000a600019018019909216911617905292019485525060405193849003810190932084518051919461095f945085935001906111cf565b50602082810151805161097892600185019201906111cf565b50604082015180516109949160028401916020909101906111cf565b50606082015180516109b09160038401916020909101906111cf565b50608082015180516109cc9160048401916020909101906111cf565b5060a082015180516109e89160058401916020909101906111cf565b5060c0820151816006015560e08201518160070160006101000a815481600160a060020a030219169083600160a060020a031602179055509050506001600081548092919060010191905055507f06507ceeea6fb86f5b876ac8b45b365400900f3abe7a113893cfb0a4c7c26277868686868686336040518080602001806020018060200180602001806020018060200188600160a060020a0316600160a060020a0316815260200187810387528e818151815260200191508051906020019080838360005b83811015610ac6578181015183820152602001610aae565b50505050905090810190601f168015610af35780820380516001836020036101000a031916815260200191505b5087810386528d5181528d516020918201918f019080838360005b83811015610b26578181015183820152602001610b0e565b50505050905090810190601f168015610b535780820380516001836020036101000a031916815260200191505b5087810385528c5181528c516020918201918e019080838360005b83811015610b86578181015183820152602001610b6e565b50505050905090810190601f168015610bb35780820380516001836020036101000a031916815260200191505b5087810384528b5181528b516020918201918d019080838360005b83811015610be6578181015183820152602001610bce565b50505050905090810190601f168015610c135780820380516001836020036101000a031916815260200191505b5087810383528a5181528a516020918201918c019080838360005b83811015610c46578181015183820152602001610c2e565b50505050905090810190601f168015610c735780820380516001836020036101000a031916815260200191505b5087810382528951815289516020918201918b019080838360005b83811015610ca6578181015183820152602001610c8e565b50505050905090810190601f168015610cd35780820380516001836020036101000a031916815260200191505b509d505050505050505050505050505060405180910390a1505050505050565b60015481565b606080606080606080600080610d0d61124d565b60008a6040518082805190602001908083835b60208310610d3f5780518252601f199092019160209182019101610d20565b518151602093840361010090810a600019908101801990941693909216929092179092529290940196875260408051978890038201882080546002600182161586029097011695909504601f8101839004909202880161012090810190915291870181815293955086945085925090840182828015610dff5780601f10610dd457610100808354040283529160200191610dff565b820191906000526020600020905b815481529060010190602001808311610de257829003601f168201915b50505050508152602001600182018054600181600116156101000203166002900480601f016020809104026020016040519081016040528092919081815260200182805460018160011615610100020316600290048015610ea15780601f10610e7657610100808354040283529160200191610ea1565b820191906000526020600020905b815481529060010190602001808311610e8457829003601f168201915b5050509183525050600282810180546040805160206001841615610100026000190190931694909404601f81018390048302850183019091528084529381019390830182828015610f335780601f10610f0857610100808354040283529160200191610f33565b820191906000526020600020905b815481529060010190602001808311610f1657829003601f168201915b505050918352505060038201805460408051602060026001851615610100026000190190941693909304601f8101849004840282018401909252818152938201939291830182828015610fc75780601f10610f9c57610100808354040283529160200191610fc7565b820191906000526020600020905b815481529060010190602001808311610faa57829003601f168201915b505050918352505060048201805460408051602060026001851615610100026000190190941693909304601f810184900484028201840190925281815293820193929183018282801561105b5780601f106110305761010080835404028352916020019161105b565b820191906000526020600020905b81548152906001019060200180831161103e57829003601f168201915b505050918352505060058201805460408051602060026001851615610100026000190190941693909304601f81018490048402820184019092528181529382019392918301828280156110ef5780601f106110c4576101008083540402835291602001916110ef565b820191906000526020600020905b8154815290600101906020018083116110d257829003601f168201915b505050918352505060068201546020820152600790910154600160a060020a031660409091015280515190915060001061118a57604080517f08c379a000000000000000000000000000000000000000000000000000000000815260206004820152601260248201527f45766964656e6365206e6f7420666f756e640000000000000000000000000000604482015290519081900360640190fd5b8051602082015160408301516060840151608085015160a086015160c087015160e090970151959e50939c50919a509850965094509092509050919395975091939597565b828054600181600116156101000203166002900490600052602060002090601f016020900481019282601f1061121057805160ff191683800117855561123d565b8280016001018555821561123d579182015b8281111561123d578251825591602001919060010190611222565b5061124992915061129c565b5090565b61010060405190810160405280606081526020016060815260200160608152602001606081526020016060815260200160608152602001600081526020016000600160a060020a031681525090565b6112b691905b8082111561124957600081556001016112a2565b9056fea165627a7a72305820d4805f10964cbe7ea6acf398aaf5e0a68fff750fbaf245d207e19fe1f7d98f5c0029",
  "source": "pragma solidity ^0.5.0;\n\ncontract EvidenceManagement {\n    struct Evidence {\n        string evidenceId;\n        string caseName;\n        string victimName;\n        string location;\n        string description;\n        string evidenceHash;\n        uint256 timestamp;\n        address addedBy;\n    }\n\n    mapping(string => Evidence) private evidences;  // Keep mapping private\n    uint256 public evidenceCount;\n\n    event EvidenceAdded(\n        string evidenceId,\n        string caseName,\n        string victimName,\n        string location,\n        string description,\n        string evidenceHash,\n        address addedBy\n    );\n\n    // Add evidence\n    function addEvidence(\n        string memory _evidenceId,\n        string memory _caseName,\n        string memory _victimName,\n        string memory _location,\n        string memory _description,\n        string memory _evidenceHash\n    ) public {\n        require(bytes(_evidenceId).length > 0, \"Evidence ID cannot be empty\");\n        require(bytes(evidences[_evidenceId].evidenceId).length == 0, \"Evidence with this ID already exists\");\n\n        evidences[_evidenceId] = Evidence(\n            _evidenceId,\n            _caseName,\n            _victimName,\n            _location,\n            _description,\n            _evidenceHash,\n            block.timestamp,\n            msg.sender\n        );\n\n        evidenceCount++;\n\n        emit EvidenceAdded(\n            _evidenceId,\n            _caseName,\n            _victimName,\n            _location,\n            _description,\n            _evidenceHash,\n            msg.sender\n        );\n    }\n\n    // Custom getter for evidence\n    function getEvidence(string memory _evidenceId) public view returns (\n        string memory,\n        string memory,\n        string memory,\n        string memory,\n        string memory,\n        string memory,\n        uint256,\n        address\n    ) {\n        Evidence memory e = evidences[_evidenceId];\n        require(bytes(e.evidenceId).length > 0, \"Evidence not found\");\n        return (\n            e.evidenceId,\n            e.caseName,\n            e.victimName,\n            e.location,\n            e.description,\n            e.evidenceHash,\n            e.timestamp,\n            e.addedBy\n        );\n    }\n}\n",
  "sourcePath": "E:/Projects/Evidence Management/contracts/EvidenceManagement.sol",
  "compiler": {
    "name": "solc",
    "version": "0.5.0+commit.1d4f565a.Emscripten.clang"
  },
  "schemaVersion": "3.0.1",
  "updatedAt": "2024-10-24T17:41:10.186Z",
  "devdoc": {
    "methods": {}
  },
  "userdoc": {
    "methods": {}
  }
}