{
  "contractName": "EvidenceManagement",
  "abi": [
    {
      "constant": true,
      "inputs": [
        {
          "name": "",
          "type": "uint256"
        }
      ],
      "name": "evidences",
      "outputs": [
        {
          "name": "evidenceHash",
          "type": "string"
        },
        {
          "name": "description",
          "type": "string"
        },
        {
          "name": "timestamp",
          "type": "uint256"
        },
        {
          "name": "addedBy",
          "type": "address"
        }
      ],
      "payable": false,
      "stateMutability": "view",
      "type": "function",
      "signature": "0x2e4546cd"
    },
    {
      "constant": true,
      "inputs": [],
      "name": "evidenceCount",
      "outputs": [
        {
          "name": "",
          "type": "uint256"
        }
      ],
      "payable": false,
      "stateMutability": "view",
      "type": "function",
      "signature": "0xa2ed5af0"
    },
    {
      "constant": true,
      "inputs": [
        {
          "name": "",
          "type": "address"
        }
      ],
      "name": "users",
      "outputs": [
        {
          "name": "name",
          "type": "string"
        },
        {
          "name": "email",
          "type": "string"
        },
        {
          "name": "userAddress",
          "type": "address"
        }
      ],
      "payable": false,
      "stateMutability": "view",
      "type": "function",
      "signature": "0xa87430ba"
    },
    {
      "anonymous": false,
      "inputs": [
        {
          "indexed": false,
          "name": "userAddress",
          "type": "address"
        },
        {
          "indexed": false,
          "name": "name",
          "type": "string"
        },
        {
          "indexed": false,
          "name": "email",
          "type": "string"
        }
      ],
      "name": "UserRegistered",
      "type": "event",
      "signature": "0x92822564bab8864c3a47b34e8d23fbce5c46234eb5da261f94087b995ac0f33b"
    },
    {
      "anonymous": false,
      "inputs": [
        {
          "indexed": false,
          "name": "evidenceId",
          "type": "uint256"
        },
        {
          "indexed": false,
          "name": "evidenceHash",
          "type": "string"
        },
        {
          "indexed": false,
          "name": "description",
          "type": "string"
        },
        {
          "indexed": false,
          "name": "addedBy",
          "type": "address"
        }
      ],
      "name": "EvidenceAdded",
      "type": "event",
      "signature": "0x0a2627ef79b7388b77d07652a60137d9b359a689f2d609cf8704f9798b939490"
    },
    {
      "constant": false,
      "inputs": [
        {
          "name": "_name",
          "type": "string"
        },
        {
          "name": "_email",
          "type": "string"
        }
      ],
      "name": "registerUser",
      "outputs": [],
      "payable": false,
      "stateMutability": "nonpayable",
      "type": "function",
      "signature": "0x1d2e4afd"
    },
    {
      "constant": true,
      "inputs": [],
      "name": "isUserRegistered",
      "outputs": [
        {
          "name": "",
          "type": "bool"
        }
      ],
      "payable": false,
      "stateMutability": "view",
      "type": "function",
      "signature": "0x873138f3"
    },
    {
      "constant": false,
      "inputs": [
        {
          "name": "_evidenceHash",
          "type": "string"
        },
        {
          "name": "_description",
          "type": "string"
        }
      ],
      "name": "addEvidence",
      "outputs": [],
      "payable": false,
      "stateMutability": "nonpayable",
      "type": "function",
      "signature": "0xeb5c0bea"
    },
    {
      "constant": true,
      "inputs": [
        {
          "name": "_id",
          "type": "uint256"
        }
      ],
      "name": "getEvidence",
      "outputs": [
        {
          "name": "",
          "type": "string"
        },
        {
          "name": "",
          "type": "string"
        },
        {
          "name": "",
          "type": "uint256"
        },
        {
          "name": "",
          "type": "address"
        }
      ],
      "payable": false,
      "stateMutability": "view",
      "type": "function",
      "signature": "0xc956f143"
    }
  ],
  "bytecode": "0x608060405234801561001057600080fd5b50610fa9806100206000396000f3fe6080604052600436106100825763ffffffff7c01000000000000000000000000000000000000000000000000000000006000350416631d2e4afd81146100875780632e4546cd146101c3578063873138f3146102e0578063a2ed5af014610309578063a87430ba14610330578063c956f1431461045a578063eb5c0bea14610484575b600080fd5b34801561009357600080fd5b506101c1600480360360408110156100aa57600080fd5b8101906020810181356401000000008111156100c557600080fd5b8201836020820111156100d757600080fd5b803590602001918460018302840111640100000000831117156100f957600080fd5b91908080601f016020809104026020016040519081016040528093929190818152602001838380828437600092019190915250929594936020810193503591505064010000000081111561014c57600080fd5b82018360208201111561015e57600080fd5b8035906020019184600183028401116401000000008311171561018057600080fd5b91908080601f0160208091040260200160405190810160405280939291908181526020018383808284376000920191909152509295506105be945050505050565b005b3480156101cf57600080fd5b506101ed600480360360208110156101e657600080fd5b50356107f4565b60408051908101839052600160a060020a038216606082015260808082528551908201528451819060208083019160a084019189019080838360005b83811015610241578181015183820152602001610229565b50505050905090810190601f16801561026e5780820380516001836020036101000a031916815260200191505b50838103825286518152865160209182019188019080838360005b838110156102a1578181015183820152602001610289565b50505050905090810190601f1680156102ce5780820380516001836020036101000a031916815260200191505b50965050505050505060405180910390f35b3480156102ec57600080fd5b506102f5610944565b604080519115158252519081900360200190f35b34801561031557600080fd5b5061031e61096e565b60408051918252519081900360200190f35b34801561033c57600080fd5b506103636004803603602081101561035357600080fd5b5035600160a060020a0316610974565b60405180806020018060200184600160a060020a0316600160a060020a03168152602001838103835286818151815260200191508051906020019080838360005b838110156103bc5781810151838201526020016103a4565b50505050905090810190601f1680156103e95780820380516001836020036101000a031916815260200191505b50838103825285518152855160209182019187019080838360005b8381101561041c578181015183820152602001610404565b50505050905090810190601f1680156104495780820380516001836020036101000a031916815260200191505b509550505050505060405180910390f35b34801561046657600080fd5b506101ed6004803603602081101561047d57600080fd5b5035610abf565b34801561049057600080fd5b506101c1600480360360408110156104a757600080fd5b8101906020810181356401000000008111156104c257600080fd5b8201836020820111156104d457600080fd5b803590602001918460018302840111640100000000831117156104f657600080fd5b91908080601f016020809104026020016040519081016040528093929190818152602001838380828437600092019190915250929594936020810193503591505064010000000081111561054957600080fd5b82018360208201111561055b57600080fd5b8035906020019184600183028401116401000000008311171561057d57600080fd5b91908080601f016020809104026020016040519081016040528093929190818152602001838380828437600092019190915250929550610c5a945050505050565b336000908152602081905260409020600190810154600291811615610100026000190116041561064f57604080517f08c379a000000000000000000000000000000000000000000000000000000000815260206004820152601760248201527f5573657220616c72656164792072656769737465726564000000000000000000604482015290519081900360640190fd5b60408051606081018252838152602080820184905233828401819052600090815280825292909220815180519293919261068c9284920190610eb3565b5060208281015180516106a59260018501920190610eb3565b5060408201518160020160006101000a815481600160a060020a030219169083600160a060020a031602179055509050507f92822564bab8864c3a47b34e8d23fbce5c46234eb5da261f94087b995ac0f33b3383836040518084600160a060020a0316600160a060020a031681526020018060200180602001838103835285818151815260200191508051906020019080838360005b8381101561075357818101518382015260200161073b565b50505050905090810190601f1680156107805780820380516001836020036101000a031916815260200191505b50838103825284518152845160209182019186019080838360005b838110156107b357818101518382015260200161079b565b50505050905090810190601f1680156107e05780820380516001836020036101000a031916815260200191505b509550505050505060405180910390a15050565b60016020818152600092835260409283902080548451600294821615610100026000190190911693909304601f81018390048302840183019094528383529283918301828280156108865780601f1061085b57610100808354040283529160200191610886565b820191906000526020600020905b81548152906001019060200180831161086957829003601f168201915b505050505090806001018054600181600116156101000203166002900480601f0160208091040260200160405190810160405280929190818152602001828054600181600116156101000203166002900480156109245780601f106108f957610100808354040283529160200191610924565b820191906000526020600020905b81548152906001019060200180831161090757829003601f168201915b505050506002830154600390930154919291600160a060020a0316905084565b33600090815260208190526040812060019081015460029181161561010002600019011604115b90565b60025481565b6000602081815291815260409081902080548251601f600260001961010060018616150201909316929092049182018590048502810185019093528083529092839190830182828015610a085780601f106109dd57610100808354040283529160200191610a08565b820191906000526020600020905b8154815290600101906020018083116109eb57829003601f168201915b505050505090806001018054600181600116156101000203166002900480601f016020809104026020016040519081016040528092919081815260200182805460018160011615610100020316600290048015610aa65780601f10610a7b57610100808354040283529160200191610aa6565b820191906000526020600020905b815481529060010190602001808311610a8957829003601f168201915b50505060029093015491925050600160a060020a031683565b606080600080610acd610f31565b6000868152600160208181526040928390208351815460029481161561010002600019011693909304601f8101839004909202830160a0908101909452608083018281529293909284929091849190840182828015610b6d5780601f10610b4257610100808354040283529160200191610b6d565b820191906000526020600020905b815481529060010190602001808311610b5057829003601f168201915b50505050508152602001600182018054600181600116156101000203166002900480601f016020809104026020016040519081016040528092919081815260200182805460018160011615610100020316600290048015610c0f5780601f10610be457610100808354040283529160200191610c0f565b820191906000526020600020905b815481529060010190602001808311610bf257829003601f168201915b50505091835250506002820154602080830191909152600390920154600160a060020a0316604091820152825191830151908301516060909301519199909850919650945092505050565b3360009081526020819052604081206001908101546002918116156101000260001901160411610ceb57604080517f08c379a000000000000000000000000000000000000000000000000000000000815260206004820152601360248201527f55736572206e6f74207265676973746572656400000000000000000000000000604482015290519081900360640190fd5b60028054600190810191829055604080516080810182528581526020808201869052428284015233606083015260009485529283529220825180519192610d3792849290910190610eb3565b506020828101518051610d509260018501920190610eb3565b506040820151816002015560608201518160030160006101000a815481600160a060020a030219169083600160a060020a031602179055509050507f0a2627ef79b7388b77d07652a60137d9b359a689f2d609cf8704f9798b93949060025483833360405180858152602001806020018060200184600160a060020a0316600160a060020a03168152602001838103835286818151815260200191508051906020019080838360005b83811015610e11578181015183820152602001610df9565b50505050905090810190601f168015610e3e5780820380516001836020036101000a031916815260200191505b50838103825285518152855160209182019187019080838360005b83811015610e71578181015183820152602001610e59565b50505050905090810190601f168015610e9e5780820380516001836020036101000a031916815260200191505b50965050505050505060405180910390a15050565b828054600181600116156101000203166002900490600052602060002090601f016020900481019282601f10610ef457805160ff1916838001178555610f21565b82800160010185558215610f21579182015b82811115610f21578251825591602001919060010190610f06565b50610f2d929150610f63565b5090565b6080604051908101604052806060815260200160608152602001600081526020016000600160a060020a031681525090565b61096b91905b80821115610f2d5760008155600101610f6956fea165627a7a7230582052d45875ba8ec71aa9bb88ba2148a1efea16cd1d068ef2c5af7d45c4d61831510029",
  "source": "pragma solidity ^0.5.0;\n\ncontract EvidenceManagement {\n    // Struct to store evidence data\n    struct Evidence {\n        string evidenceHash;\n        string description;\n        uint256 timestamp;\n        address addedBy;\n    }\n\n    struct User {\n        string name;\n        string email;\n        address userAddress;\n    }\n\n    // Mapping for users and evidences\n    mapping(address => User) public users;\n    mapping(uint256 => Evidence) public evidences;\n    uint256 public evidenceCount;\n\n    // Event for user registration and evidence addition\n    event UserRegistered(address userAddress, string name, string email);\n    event EvidenceAdded(uint256 evidenceId, string evidenceHash, string description, address addedBy);\n\n    // Function to register a new user\n    function registerUser(string memory _name, string memory _email) public {\n        require(bytes(users[msg.sender].email).length == 0, \"User already registered\");\n        users[msg.sender] = User(_name, _email, msg.sender);\n        emit UserRegistered(msg.sender, _name, _email);\n    }\n\n    // Function to check if the user is registered\n    function isUserRegistered() public view returns (bool) {\n        return bytes(users[msg.sender].email).length > 0;\n    }\n\n    // Function to add evidence (only if the user is registered)\n    function addEvidence(string memory _evidenceHash, string memory _description) public {\n        require(bytes(users[msg.sender].email).length > 0, \"User not registered\");\n        evidenceCount++;\n        evidences[evidenceCount] = Evidence(_evidenceHash, _description, block.timestamp, msg.sender);\n        emit EvidenceAdded(evidenceCount, _evidenceHash, _description, msg.sender);\n    }\n\n    // Function to get evidence by ID\n    function getEvidence(uint256 _id) public view returns (string memory, string memory, uint256, address) {\n        Evidence memory e = evidences[_id];\n        return (e.evidenceHash, e.description, e.timestamp, e.addedBy);\n    }\n}\n",
  "sourcePath": "E:/Projects/Evidence Management/contracts/EvidenceManagement.sol",
  "compiler": {
    "name": "solc",
    "version": "0.5.0+commit.1d4f565a.Emscripten.clang"
  },
  "schemaVersion": "3.0.1",
  "updatedAt": "2024-10-17T16:36:16.360Z",
  "devdoc": {
    "methods": {}
  },
  "userdoc": {
    "methods": {}
  }
}