{
  "contractName": "EvidenceManagement",
  "abi": [
    {
      "constant": true,
      "inputs": [],
      "name": "evidenceCount",
      "outputs": [
        {
          "name": "",
          "type": "uint256"
        }
      ],
      "payable": false,
      "stateMutability": "view",
      "type": "function",
      "signature": "0xa2ed5af0"
    },
    {
      "anonymous": false,
      "inputs": [
        {
          "indexed": false,
          "name": "evidenceId",
          "type": "string"
        },
        {
          "indexed": false,
          "name": "caseName",
          "type": "string"
        },
        {
          "indexed": false,
          "name": "victimName",
          "type": "string"
        },
        {
          "indexed": false,
          "name": "location",
          "type": "string"
        },
        {
          "indexed": false,
          "name": "description",
          "type": "string"
        },
        {
          "indexed": false,
          "name": "evidenceHash",
          "type": "string"
        },
        {
          "indexed": false,
          "name": "addedBy",
          "type": "address"
        }
      ],
      "name": "EvidenceAdded",
      "type": "event",
      "signature": "0x06507ceeea6fb86f5b876ac8b45b365400900f3abe7a113893cfb0a4c7c26277"
    },
    {
      "constant": false,
      "inputs": [
        {
          "name": "_evidenceId",
          "type": "string"
        },
        {
          "name": "_caseName",
          "type": "string"
        },
        {
          "name": "_victimName",
          "type": "string"
        },
        {
          "name": "_location",
          "type": "string"
        },
        {
          "name": "_description",
          "type": "string"
        },
        {
          "name": "_evidenceHash",
          "type": "string"
        }
      ],
      "name": "addEvidence",
      "outputs": [],
      "payable": false,
      "stateMutability": "nonpayable",
      "type": "function",
      "signature": "0x47549cb7"
    },
    {
      "constant": true,
      "inputs": [
        {
          "name": "_evidenceId",
          "type": "string"
        }
      ],
      "name": "getEvidence",
      "outputs": [
        {
          "name": "",
          "type": "string"
        },
        {
          "name": "",
          "type": "string"
        },
        {
          "name": "",
          "type": "string"
        },
        {
          "name": "",
          "type": "string"
        },
        {
          "name": "",
          "type": "string"
        },
        {
          "name": "",
          "type": "string"
        },
        {
          "name": "",
          "type": "uint256"
        },
        {
          "name": "",
          "type": "address"
        }
      ],
      "payable": false,
      "stateMutability": "view",
      "type": "function",
      "signature": "0xb16c6ee7"
    },
    {
      "constant": true,
      "inputs": [],
      "name": "getAllEvidence",
      "outputs": [
        {
          "name": "",
          "type": "string[]"
        }
      ],
      "payable": false,
      "stateMutability": "view",
      "type": "function",
      "signature": "0xc22cf017"
    }
  ],
  "bytecode": "0x608060405234801561001057600080fd5b50611067806100206000396000f3fe6080604052600436106100615763ffffffff7c010000000000000000000000000000000000000000000000000000000060003504166347549cb78114610066578063a2ed5af014610088578063b16c6ee7146100b3578063c22cf017146100e7575b600080fd5b34801561007257600080fd5b50610086610081366004610b4b565b610109565b005b34801561009457600080fd5b5061009d610439565b6040516100aa9190610f51565b60405180910390f35b3480156100bf57600080fd5b506100d36100ce366004610b0e565b61043f565b6040516100aa989796959493929190610e7c565b3480156100f357600080fd5b506100fc6108ed565b6040516100aa9190610dd4565b855160001061014d576040517f08c379a000000000000000000000000000000000000000000000000000000000815260040161014490610f41565b60405180910390fd5b6000866040518082805190602001908083835b6020831061017f5780518252601f199092019160209182019101610160565b6001836020036101000a03801982511681845116808217855250505050505090500191505090815260200160405180910390206000018054600181600116156101000203166002900490506000141515610205576040517f08c379a000000000000000000000000000000000000000000000000000000000815260040161014490610f31565b610100604051908101604052808781526020018681526020018581526020018481526020018381526020018281526020014281526020013373ffffffffffffffffffffffffffffffffffffffff168152506000876040518082805190602001908083835b602083106102885780518252601f199092019160209182019101610269565b51815160209384036101000a60001901801990921691161790529201948552506040519384900381019093208451805191946102c9945085935001906109c6565b5060208281015180516102e292600185019201906109c6565b50604082015180516102fe9160028401916020909101906109c6565b506060820151805161031a9160038401916020909101906109c6565b50608082015180516103369160048401916020909101906109c6565b5060a082015180516103529160058401916020909101906109c6565b5060c0820151600682015560e0909101516007909101805473ffffffffffffffffffffffffffffffffffffffff191673ffffffffffffffffffffffffffffffffffffffff9092169190911790556001805480820180835560009290925287516103e2917fb10e2d527612073b26eecdfd717e6a320cf44b4afac2b0732d9fcbe2b7fa0cf6019060208a01906109c6565b50506002805460010190556040517f06507ceeea6fb86f5b876ac8b45b365400900f3abe7a113893cfb0a4c7c2627790610429908890889088908890889088903390610dec565b60405180910390a1505050505050565b60025481565b606080606080606080600080610453610a44565b60008a6040518082805190602001908083835b602083106104855780518252601f199092019160209182019101610466565b518151602093840361010090810a600019908101801990941693909216929092179092529290940196875260408051978890038201882080546002600182161586029097011695909504601f81018390049092028801610120908101909152918701818152939550869450859250908401828280156105455780601f1061051a57610100808354040283529160200191610545565b820191906000526020600020905b81548152906001019060200180831161052857829003601f168201915b50505050508152602001600182018054600181600116156101000203166002900480601f0160208091040260200160405190810160405280929190818152602001828054600181600116156101000203166002900480156105e75780601f106105bc576101008083540402835291602001916105e7565b820191906000526020600020905b8154815290600101906020018083116105ca57829003601f168201915b5050509183525050600282810180546040805160206001841615610100026000190190931694909404601f810183900483028501830190915280845293810193908301828280156106795780601f1061064e57610100808354040283529160200191610679565b820191906000526020600020905b81548152906001019060200180831161065c57829003601f168201915b505050918352505060038201805460408051602060026001851615610100026000190190941693909304601f810184900484028201840190925281815293820193929183018282801561070d5780601f106106e25761010080835404028352916020019161070d565b820191906000526020600020905b8154815290600101906020018083116106f057829003601f168201915b505050918352505060048201805460408051602060026001851615610100026000190190941693909304601f81018490048402820184019092528181529382019392918301828280156107a15780601f10610776576101008083540402835291602001916107a1565b820191906000526020600020905b81548152906001019060200180831161078457829003601f168201915b505050918352505060058201805460408051602060026001851615610100026000190190941693909304601f81018490048402820184019092528181529382019392918301828280156108355780601f1061080a57610100808354040283529160200191610835565b820191906000526020600020905b81548152906001019060200180831161081857829003601f168201915b50505091835250506006820154602082015260079091015473ffffffffffffffffffffffffffffffffffffffff166040909101528051519091506000106108a8576040517f08c379a000000000000000000000000000000000000000000000000000000000815260040161014490610f1b565b8051602082015160408301516060840151608085015160a086015160c087015160e090970151959e50939c50919a509850965094509092509050919395975091939597565b60606001805480602002602001604051908101604052809291908181526020016000905b828210156109bc5760008481526020908190208301805460408051601f60026000196101006001871615020190941693909304928301859004850281018501909152818152928301828280156109a85780601f1061097d576101008083540402835291602001916109a8565b820191906000526020600020905b81548152906001019060200180831161098b57829003601f168201915b505050505081526020019060010190610911565b5050505090505b90565b828054600181600116156101000203166002900490600052602060002090601f016020900481019282601f10610a0757805160ff1916838001178555610a34565b82800160010185558215610a34579182015b82811115610a34578251825591602001919060010190610a19565b50610a40929150610aa0565b5090565b6101006040519081016040528060608152602001606081526020016060815260200160608152602001606081526020016060815260200160008152602001600073ffffffffffffffffffffffffffffffffffffffff1681525090565b6109c391905b80821115610a405760008155600101610aa6565b6000601f82018313610acb57600080fd5b8135610ade610ad982610f86565b610f5f565b91508082526020830160208301858383011115610afa57600080fd5b610b05838284610fe7565b50505092915050565b600060208284031215610b2057600080fd5b813567ffffffffffffffff811115610b3757600080fd5b610b4384828501610aba565b949350505050565b60008060008060008060c08789031215610b6457600080fd5b863567ffffffffffffffff811115610b7b57600080fd5b610b8789828a01610aba565b965050602087013567ffffffffffffffff811115610ba457600080fd5b610bb089828a01610aba565b955050604087013567ffffffffffffffff811115610bcd57600080fd5b610bd989828a01610aba565b945050606087013567ffffffffffffffff811115610bf657600080fd5b610c0289828a01610aba565b935050608087013567ffffffffffffffff811115610c1f57600080fd5b610c2b89828a01610aba565b92505060a087013567ffffffffffffffff811115610c4857600080fd5b610c5489828a01610aba565b9150509295509295509295565b610c6a81610fd6565b82525050565b610c6a81610fb8565b6000610c8482610fb4565b80845260208401935083602082028501610c9d85610fae565b60005b84811015610cd4578383038852610cb8838351610ce0565b9250610cc382610fae565b602098909801979150600101610ca0565b50909695505050505050565b6000610ceb82610fb4565b808452610cff816020860160208601610ff3565b610d0881611023565b9093016020019392505050565b601281527f45766964656e6365206e6f7420666f756e640000000000000000000000000000602082015260400190565b602481527f45766964656e63652077697468207468697320494420616c726561647920657860208201527f6973747300000000000000000000000000000000000000000000000000000000604082015260600190565b601b81527f45766964656e63652049442063616e6e6f7420626520656d7074790000000000602082015260400190565b610c6a816109c3565b60208082528101610de58184610c79565b9392505050565b60e08082528101610dfd818a610ce0565b90508181036020830152610e118189610ce0565b90508181036040830152610e258188610ce0565b90508181036060830152610e398187610ce0565b90508181036080830152610e4d8186610ce0565b905081810360a0830152610e618185610ce0565b9050610e7060c0830184610c61565b98975050505050505050565b6101008082528101610e8e818b610ce0565b90508181036020830152610ea2818a610ce0565b90508181036040830152610eb68189610ce0565b90508181036060830152610eca8188610ce0565b90508181036080830152610ede8187610ce0565b905081810360a0830152610ef28186610ce0565b9050610f0160c0830185610dcb565b610f0e60e0830184610c70565b9998505050505050505050565b60208082528101610f2b81610d15565b92915050565b60208082528101610f2b81610d45565b60208082528101610f2b81610d9b565b60208101610f2b8284610dcb565b60405181810167ffffffffffffffff81118282101715610f7e57600080fd5b604052919050565b600067ffffffffffffffff821115610f9d57600080fd5b506020601f91909101601f19160190565b60200190565b5190565b600073ffffffffffffffffffffffffffffffffffffffff8216610f2b565b6000610f2b826000610f2b82610fb8565b82818337506000910152565b60005b8381101561100e578181015183820152602001610ff6565b8381111561101d576000848401525b50505050565b601f01601f19169056fea265627a7a72305820654cc7dbfd99816180b2ae7ca3f1e2a13fee42a0ac9710efd61fc22eca7561be6c6578706572696d656e74616cf50037",
  "source": "pragma solidity ^0.5.0;\npragma experimental ABIEncoderV2;\n\ncontract EvidenceManagement {\n    struct Evidence {\n        string evidenceId;\n        string caseName;\n        string victimName;\n        string location;\n        string description;\n        string evidenceHash;\n        uint256 timestamp;\n        address addedBy;\n    }\n\n    mapping(string => Evidence) private evidences;\n    string[] private evidenceIds;\n    uint256 public evidenceCount;\n\n    event EvidenceAdded(\n        string evidenceId,\n        string caseName,\n        string victimName,\n        string location,\n        string description,\n        string evidenceHash,\n        address addedBy\n    );\n\n    function addEvidence(\n        string memory _evidenceId,\n        string memory _caseName,\n        string memory _victimName,\n        string memory _location,\n        string memory _description,\n        string memory _evidenceHash\n    ) public {\n        require(bytes(_evidenceId).length > 0, \"Evidence ID cannot be empty\");\n        require(bytes(evidences[_evidenceId].evidenceId).length == 0, \"Evidence with this ID already exists\");\n\n        evidences[_evidenceId] = Evidence(\n            _evidenceId,\n            _caseName,\n            _victimName,\n            _location,\n            _description,\n            _evidenceHash,\n            block.timestamp,\n            msg.sender\n        );\n\n        evidenceIds.push(_evidenceId);\n        evidenceCount++;\n\n        emit EvidenceAdded(\n            _evidenceId,\n            _caseName,\n            _victimName,\n            _location,\n            _description,\n            _evidenceHash,\n            msg.sender\n        );\n    }\n\n    function getEvidence(string memory _evidenceId) public view returns (\n        string memory,\n        string memory,\n        string memory,\n        string memory,\n        string memory,\n        string memory,\n        uint256,\n        address\n    ) {\n        Evidence memory e = evidences[_evidenceId];\n        require(bytes(e.evidenceId).length > 0, \"Evidence not found\");\n        return (\n            e.evidenceId,\n            e.caseName,\n            e.victimName,\n            e.location,\n            e.description,\n            e.evidenceHash,\n            e.timestamp,\n            e.addedBy\n        );\n    }\n\n    function getAllEvidence() public view returns (string[] memory) {\n        return evidenceIds;\n    }\n}\n",
  "sourcePath": "E:/Projects/Evidence Management/contracts/EvidenceManagement.sol",
  "compiler": {
    "name": "solc",
    "version": "0.5.0+commit.1d4f565a.Emscripten.clang"
  },
  "schemaVersion": "3.0.1",
  "updatedAt": "2024-10-26T16:37:02.100Z",
  "devdoc": {
    "methods": {}
  },
  "userdoc": {
    "methods": {}
  }
}