{
  "contractName": "EvidenceManagement",
  "abi": [
    {
      "constant": true,
      "inputs": [
        {
          "name": "",
          "type": "uint256"
        }
      ],
      "name": "evidences",
      "outputs": [
        {
          "name": "evidenceHash",
          "type": "string"
        },
        {
          "name": "description",
          "type": "string"
        },
        {
          "name": "timestamp",
          "type": "uint256"
        },
        {
          "name": "addedBy",
          "type": "address"
        }
      ],
      "payable": false,
      "stateMutability": "view",
      "type": "function",
      "signature": "0x2e4546cd"
    },
    {
      "constant": true,
      "inputs": [],
      "name": "evidenceCount",
      "outputs": [
        {
          "name": "",
          "type": "uint256"
        }
      ],
      "payable": false,
      "stateMutability": "view",
      "type": "function",
      "signature": "0xa2ed5af0"
    },
    {
      "anonymous": false,
      "inputs": [
        {
          "indexed": false,
          "name": "evidenceId",
          "type": "uint256"
        },
        {
          "indexed": false,
          "name": "evidenceHash",
          "type": "string"
        },
        {
          "indexed": false,
          "name": "description",
          "type": "string"
        },
        {
          "indexed": false,
          "name": "addedBy",
          "type": "address"
        }
      ],
      "name": "EvidenceAdded",
      "type": "event",
      "signature": "0x0a2627ef79b7388b77d07652a60137d9b359a689f2d609cf8704f9798b939490"
    },
    {
      "constant": false,
      "inputs": [
        {
          "name": "_evidenceHash",
          "type": "string"
        },
        {
          "name": "_description",
          "type": "string"
        }
      ],
      "name": "addEvidence",
      "outputs": [],
      "payable": false,
      "stateMutability": "nonpayable",
      "type": "function",
      "signature": "0xeb5c0bea"
    },
    {
      "constant": true,
      "inputs": [
        {
          "name": "_id",
          "type": "uint256"
        }
      ],
      "name": "getEvidence",
      "outputs": [
        {
          "name": "",
          "type": "string"
        },
        {
          "name": "",
          "type": "string"
        },
        {
          "name": "",
          "type": "uint256"
        },
        {
          "name": "",
          "type": "address"
        }
      ],
      "payable": false,
      "stateMutability": "view",
      "type": "function",
      "signature": "0xc956f143"
    }
  ],
  "bytecode": "0x608060405234801561001057600080fd5b506108bf806100206000396000f3fe6080604052600436106100615763ffffffff7c01000000000000000000000000000000000000000000000000000000006000350416632e4546cd8114610066578063a2ed5af014610183578063c956f143146101aa578063eb5c0bea146101d4575b600080fd5b34801561007257600080fd5b506100906004803603602081101561008957600080fd5b5035610310565b60408051908101839052600160a060020a038216606082015260808082528551908201528451819060208083019160a084019189019080838360005b838110156100e45781810151838201526020016100cc565b50505050905090810190601f1680156101115780820380516001836020036101000a031916815260200191505b50838103825286518152865160209182019188019080838360005b8381101561014457818101518382015260200161012c565b50505050905090810190601f1680156101715780820380516001836020036101000a031916815260200191505b50965050505050505060405180910390f35b34801561018f57600080fd5b50610198610462565b60408051918252519081900360200190f35b3480156101b657600080fd5b50610090600480360360208110156101cd57600080fd5b5035610468565b3480156101e057600080fd5b5061030e600480360360408110156101f757600080fd5b81019060208101813564010000000081111561021257600080fd5b82018360208201111561022457600080fd5b8035906020019184600183028401116401000000008311171561024657600080fd5b91908080601f016020809104026020016040519081016040528093929190818152602001838380828437600092019190915250929594936020810193503591505064010000000081111561029957600080fd5b8201836020820111156102ab57600080fd5b803590602001918460018302840111640100000000831117156102cd57600080fd5b91908080601f0160208091040260200160405190810160405280939291908181526020018383808284376000920191909152509295506105ff945050505050565b005b6000602081815291815260409081902080548251601f6002600019610100600186161502019093169290920491820185900485028101850190935280835290928391908301828280156103a45780601f10610379576101008083540402835291602001916103a4565b820191906000526020600020905b81548152906001019060200180831161038757829003601f168201915b505050505090806001018054600181600116156101000203166002900480601f0160208091040260200160405190810160405280929190818152602001828054600181600116156101000203166002900480156104425780601f1061041757610100808354040283529160200191610442565b820191906000526020600020905b81548152906001019060200180831161042557829003601f168201915b505050506002830154600390930154919291600160a060020a0316905084565b60015481565b6060806000806104766107c6565b600086815260208181526040918290208251815460026001821615610100026000190190911604601f8101849004909302810160a0908101909452608081018381529093919284928491908401828280156105125780601f106104e757610100808354040283529160200191610512565b820191906000526020600020905b8154815290600101906020018083116104f557829003601f168201915b50505050508152602001600182018054600181600116156101000203166002900480601f0160208091040260200160405190810160405280929190818152602001828054600181600116156101000203166002900480156105b45780601f10610589576101008083540402835291602001916105b4565b820191906000526020600020905b81548152906001019060200180831161059757829003601f168201915b50505091835250506002820154602080830191909152600390920154600160a060020a0316604091820152825191830151908301516060909301519199909850919650945092505050565b60018054810190819055604080516080810182528481526020808201859052428284015233606083015260009384528381529190922082518051919261064a928492909101906107f8565b50602082810151805161066392600185019201906107f8565b506040820151816002015560608201518160030160006101000a815481600160a060020a030219169083600160a060020a031602179055509050507f0a2627ef79b7388b77d07652a60137d9b359a689f2d609cf8704f9798b93949060015483833360405180858152602001806020018060200184600160a060020a0316600160a060020a03168152602001838103835286818151815260200191508051906020019080838360005b8381101561072457818101518382015260200161070c565b50505050905090810190601f1680156107515780820380516001836020036101000a031916815260200191505b50838103825285518152855160209182019187019080838360005b8381101561078457818101518382015260200161076c565b50505050905090810190601f1680156107b15780820380516001836020036101000a031916815260200191505b50965050505050505060405180910390a15050565b6080604051908101604052806060815260200160608152602001600081526020016000600160a060020a031681525090565b828054600181600116156101000203166002900490600052602060002090601f016020900481019282601f1061083957805160ff1916838001178555610866565b82800160010185558215610866579182015b8281111561086657825182559160200191906001019061084b565b50610872929150610876565b5090565b61089091905b80821115610872576000815560010161087c565b9056fea165627a7a723058204c05481a73a8b90dfc62c00e8cfa93a781a7797888ab3444dba2cdb8634f3f0f0029",
  "source": "pragma solidity ^0.5.0;\n\ncontract EvidenceManagement {\n    // uint public evidenceCount = 0;\n\n    // Struct to store evidence data\n    struct Evidence {\n        string evidenceHash; // Hash of the evidence (could be a file hash)\n        string description;  // Description of the evidence\n        uint256 timestamp;   // Time evidence was added\n        address addedBy;     // Address of the user who added it\n    }\n\n    // Mapping to store evidences with unique ids\n    mapping(uint256 => Evidence) public evidences;\n    uint256 public evidenceCount;\n\n    // Event to trigger when new evidence is added\n    event EvidenceAdded(uint256 evidenceId, string evidenceHash, string description, address addedBy);\n\n    // Function to add new evidence\n    function addEvidence(string memory _evidenceHash, string memory _description) public {\n        evidenceCount++;\n        evidences[evidenceCount] = Evidence(_evidenceHash, _description, block.timestamp, msg.sender);\n\n        // Emit event\n        emit EvidenceAdded(evidenceCount, _evidenceHash, _description, msg.sender);\n    }\n\n    // Function to get evidence by ID\n    function getEvidence(uint256 _id) public view returns (string memory, string memory, uint256, address) {\n        Evidence memory e = evidences[_id];\n        return (e.evidenceHash, e.description, e.timestamp, e.addedBy);\n    }\n}\n",
  "sourcePath": "E:/Projects/Evidence Management/contracts/EvidenceManagement.sol",
  "compiler": {
    "name": "solc",
    "version": "0.5.0+commit.1d4f565a.Emscripten.clang"
  },
  "schemaVersion": "3.0.1",
  "updatedAt": "2024-10-15T17:17:26.083Z",
  "devdoc": {
    "methods": {}
  },
  "userdoc": {
    "methods": {}
  }
}