{
  "contractName": "EvidenceManagement",
  "abi": [
    {
      "constant": true,
      "inputs": [],
      "name": "evidenceCount",
      "outputs": [
        {
          "name": "",
          "type": "uint256"
        }
      ],
      "payable": false,
      "stateMutability": "view",
      "type": "function",
      "signature": "0xa2ed5af0"
    }
  ],
  "bytecode": "0x608060405260008055348015601357600080fd5b50609e806100226000396000f3fe608060405260043610603f576000357c0100000000000000000000000000000000000000000000000000000000900463ffffffff168063a2ed5af0146044575b600080fd5b348015604f57600080fd5b506056606c565b6040518082815260200191505060405180910390f35b6000548156fea165627a7a72305820c3eddb2c9ac7f7583700a844d94a1d8dfe2fc38c3ddd20968e20777f779e7d670029",
  "source": "pragma solidity ^0.5.0;\n\ncontract EvidenceManagement {\n    uint public evidenceCount = 0;\n\n    // // Struct to store evidence data\n    // struct Evidence {\n    //     string evidenceHash; // Hash of the evidence (could be a file hash)\n    //     string description;  // Description of the evidence\n    //     uint256 timestamp;   // Time evidence was added\n    //     address addedBy;     // Address of the user who added it\n    // }\n\n    // // Mapping to store evidences with unique ids\n    // mapping(uint256 => Evidence) public evidences;\n    // uint256 public evidenceCount;\n\n    // // Event to trigger when new evidence is added\n    // event EvidenceAdded(uint256 evidenceId, string evidenceHash, string description, address addedBy);\n\n    // // Function to add new evidence\n    // function addEvidence(string memory _evidenceHash, string memory _description) public {\n    //     evidenceCount++;\n    //     evidences[evidenceCount] = Evidence(_evidenceHash, _description, block.timestamp, msg.sender);\n\n    //     // Emit event\n    //     emit EvidenceAdded(evidenceCount, _evidenceHash, _description, msg.sender);\n    // }\n\n    // // Function to get evidence by ID\n    // function getEvidence(uint256 _id) public view returns (string memory, string memory, uint256, address) {\n    //     Evidence memory e = evidences[_id];\n    //     return (e.evidenceHash, e.description, e.timestamp, e.addedBy);\n    // }\n}\n",
  "sourcePath": "E:/Projects/Evidence Management/contracts/EvidenceManagement.sol",
  "compiler": {
    "name": "solc",
    "version": "0.5.0+commit.1d4f565a.Emscripten.clang"
  },
  "schemaVersion": "3.0.1",
  "updatedAt": "2024-10-14T18:04:03.962Z",
  "devdoc": {
    "methods": {}
  },
  "userdoc": {
    "methods": {}
  }
}